:020000040800F2
:10000000E00600205D020008ED200008E520000861
:10001000E92000085D060008E12300080000000058
:10002000000000000000000000000000F5200008B3
:100030006106000800000000F1200008F920000817
:100040008102000881020008810200088102000884
:100050008102000881020008810200088102000874
:100060008102000881020008810200088102000864
:100070008102000881020008810200088102000854
:100080008102000881020008810200088102000844
:100090008102000881020008810200088102000834
:1000A0008102000881020008810200088102000824
:1000B0008102000881020008810200088102000814
:1000C0008102000881020008810200088102000804
:1000D00081020008D523000881020008810200087F
:1000E00081020008810200088102000881020008E4
:1000F00081020008810200088102000881020008D4
:1001000081020008810200088102000881020008C3
:100110008102000881020008112100088102000804
:1001200081020008810200088102000881020008A3
:100130008102000881020008810200088102000893
:100140008102000881020008810200088102000883
:100150008102000881020008810200088102000873
:100160008102000881020008810200088102000863
:1001700081020008810200088102000800000000DE
:10018000810200088102000800F002F800F057F830
:1001900014A696E8000CB244B344DA4501D100F04D
:1001A0004EF8BAE80F000FA696E83000A5EB04055C
:1001B00004EB0607AAEB0704A7F101074FEA1515A0
:1001C0004FEA3414A4F10104AC4201D300F037F833
:1001D00013F0010F18BFFB1A43F0010300F001F800
:1001E000DBE71847B4330000D4330000103A24BFD3
:1001F00078C878C1FAD8520724BF30C830C144BF8C
:1002000004680C6070470000704700000023002461
:1002100000250026103A28BF78C1FBD8520728BF16
:1002200030C148BF0B607047642900F0F7800020A0
:1002300070471FB503F092F91FBD10B510BD00F057
:10024000DBF91146FFF7F5FF02F052FE00F0F9F975
:1002500003B4FFF7F2FF03BC02F038F90C48016861
:1002600041F4700101600B4880470B480047FEE7EE
:10027000FEE7FEE7FEE7FEE7FEE7FEE7FEE7FEE756
:10028000FEE7000005480649044A064B7047000097
:1002900088ED00E0FD20000889010008E002002050
:1002A000E0060020E0020020704753EA020C00F054
:1002B00069802DE9F04B4FF00006002B1FBFB3FA09
:1002C00083F503FA05F424FA05F65E4012BF1643DF
:1002D000B2FA82F502FA05F4C5F120051EBF22FA32
:1002E00005FC44EA0C04203556EA044C4FEA144459
:1002F00018BF641C4FF000084FF00009904271EBEA
:10030000030C39D3002919BFB1FA81F701FA07F6B6
:10031000B0FA80F700FA07F6C7F120071EBF20FAEF
:1003200007FC46EA0C062037B6FBF4FCA7EB0507F2
:10033000103F07F01F0BCBF120062CFA06F60CFA43
:100340000BFB44BFB3460026202FA4BF5E464FF0F0
:10035000000B5BEA060C08BF4FF0010B19EB0B0911
:1003600048EB0608ABFB027C06FB02CC0BFB03CC84
:10037000C01B71EB0C01C1E70B46024641464846E3
:10038000BDE8F08B13B5084318BF4FF0FF300146AE
:10039000AFF30080BDE81C40704700000FB4044973
:1003A00010B503AA029800F0F9F810BC5DF814FB30
:1003B0007C0000202DE9F0410E460446002020621A
:1003C0002046E168884730B3252805D0D4E90121CB
:1003D0009047206A401CF2E7E168204600278847E2
:1003E000050018D0A5F14100192802D820354FF496
:1003F00000673246294620462760FFF715FF40B1C7
:10040000012804D0F61D26F007060836D8E7361D69
:10041000D6E72846DAE7206ABDE8F0812DE9F04109
:100420000646002410687529314616A510D0AFF392
:100430000080002802DA404213A507E031688A07ED
:1004400001D512A502E0490704D511A5012401E058
:10045000AFF3008000210A2206F1240709E0B0FB77
:10046000F2FCB0FBF2F302FB1C003030785418466B
:10047000491C0028F3D123462A463046BDE8F04106
:1004800000F033B8000000002D0000002B00000039
:10049000200000004FF0000200B513469446964637
:1004A000203922BFA0E80C50A0E80C50B1F1200187
:1004B000BFF4F7AF090728BFA0E80C5048BF0CC035
:1004C0005DF804EB890028BF40F8042B08BF704793
:1004D00048BF20F8022B11F0804F18BF00F8012B05
:1004E000704770477047704770472DE9F0470D46D9
:1004F00099469246044600F124080168880604D50E
:10050000E06921F01001216000E00120A84201DD36
:10051000471B00E00027A1697A1902EB0900081ABD
:10052000A0612078C00602D42046AFF300800026E8
:1005300008E0D4E901211AF806009047206A401C1F
:10054000761C20624E45F4DB2078C0060AD5204692
:10055000AFF3008006E0D4E9012130209047206A03
:10056000401C2062381EA7F10107F4DC07E0D4E943
:10057000012118F805009047206A401C2062281EBF
:10058000A5F10105F3DC2046AFF3008020780006DA
:1005900002D50220BDE8F0870120FBE7074B70B5CC
:1005A0000D467B4400F011F80446284600F020F880
:1005B00010B14FF0FF3070BD204670BD4B220000DF
:1005C00001694A1C02610878704700B58FB0CDE917
:1005D00001310021059105497944CDE90310114607
:1005E0006846FFF7E7FE0FB000BD0000E5FFFFFF24
:1005F000007B00F080007047754600F02BF8AE4697
:1006000005006946534620F00700854618B020B51E
:10061000FFF738FEBDE820404FF000064FF000071E
:100620004FF000084FF0000BAC46ACE8C009ACE856
:10063000C009ACE8C009ACE8C00921F007018D464B
:10064000704710B50446AFF300802046BDE8104067
:10065000FFF7FEBD0048704710000020FEE70000D5
:1006600070470000B0B581B00022009290F83C20A5
:10067000012A01D1022157E0D1F800E001221FFA3E
:100680008EFC80F83C204FEA4C0212FA8EF302688E
:10069000BEF10A0F32BF10321E3B0C320724156820
:1006A0009C4025EA040414608C68156804FA03F37E
:1006B0002B4313604A68062A07D802EB82014A1FBF
:1006C00001681F2351F8344F0CE001680C2A02EB3B
:1006D000820203D851F8304F233A02E051F82C4FF0
:1006E000413A1F23934024EA03030B600D680CFA80
:1006F00002F22A4342F204330A60C4F201030168A1
:10070000BEF1120FA3F5417208BF914203D11D68DB
:1007100045F480051D602EF00105102D08BF9142A3
:1007200005D0002180F83C10084601B0B0BD196822
:10073000BEF1100F41F400011960F2D140F2040142
:10074000C2F2000109684DF68362C4F21B32A1FBBC
:100750000212910C01EB8101490000BF0091009948
:100760000029DED000990139F8E700000068C06C6C
:1007700070470000002804BF0120704710B50446F0
:10078000006C30B9204600F09BF80020606484F8CB
:100790003C00206CC0063AD4206C41F20211884320
:1007A000023042F204312064C4F20101086820F4EE
:1007B000403008600A6894E809101A43D4F810E041
:1007C0000A604168012321F4807141604168C0F6EC
:1007D000007341EA0E214160416821F0407141609F
:1007E000416841EA0C014160816821F40061816047
:1007F000E168826811438160A16A8268994222F0AF
:1008000070628260826804D122F040510AE00120C7
:1008100052E011438160816821F040518160E16ABA
:10082000826811438160816821F0020181608168E2
:10083000227E94F8203041EA42018160416883B110
:1008400041F40061416041684EF2000221F46041D0
:100850004160616ACFF6FF72436802EB4131194390
:1008600001E021F400614160C16A40F2000C21F412
:100870007001C162E2696169CFF6F07CC36A0CEB7A
:1008800002521A43C262826822F40072826094F8B3
:100890003020836843EA42228260826822F48062C8
:1008A0008260826842EA8121816000206064216C5C
:1008B000012262F301012164002184F83C1010BD83
:1008C000016842F20000C4F20100814218BF704783
:1008D00080B586B0002143F630020191C4F20202D5
:1008E000536900F5604043F480735361536903F426
:1008F00080730193019B0191136843F0010313601E
:10090000126802F001020192019A782201920322F8
:10091000CDE902210121059101A900F075F906B088
:10092000BDE8804070470000F0B581B00446006823
:100930000D468268520544BF80685FEAC0502BD4E0
:1009400000F042FA21680A68920715D406466F1C27
:1009500008E000BF20680068800727D52168086884
:10096000800709D4002FF9D0002DF3D000F02CFA25
:10097000801BA842EED8F1E76FF012000860206CEF
:1009800040F400702064886810F0405F01D1207E40
:10099000B0B1002001B0F0BD206C40F02000206418
:1009A000002084F83C00012001B0F0BD206C40F034
:1009B00004002064002084F83C00032001B0F0BD56
:1009C000C86A10F4700F02D088684005E1D4206C2A
:1009D00020F480702064206CC004DAD4206C40F0D5
:1009E00001002064D5E7000010B581B0002100911E
:1009F00090F83C10012902D1022001B010BD04681A
:100A0000012180F83C10214651F8083FDB0717D13F
:100A10000B684DF6836243F001030B6040F2040360
:100A2000C2F200031B68C4F21B32A3FB02239A0C20
:100A300002EB42020092009A12B1009A013AF9E7E1
:100A40000A68036CD20709D143F01001016400F178
:100A5000440101200A681043086055E040F2017229
:100A600023EA020202F5807202646268520504D52C
:100A7000026C012363F30D320264026C4FF0000E2E
:100A80000023D20444BF426C22F0060342F2043C2D
:100A9000436480F83CE06FF02200C4F2010C206057
:100AA000DCF80000C0060DD0ACF5417084422BD1BB
:100AB0004FF60450CFF6FF705CF8000010F0405F76
:100AC00022D124E042F20000C4F20100844217D097
:100AD00042F20020C4F2010084420DD042F2001024
:100AE000C4F2010084420FD1DCF80000C00607D038
:100AF000ACF58270844207D1DCF80000C00603D454
:100B0000086810F0405F02D0002001B010BD4FF027
:100B100080409FE770B5866D044600F055F994F863
:100B20003510022928D105462068216C026822F080
:100B300016020260426922F08002426109B9A16C8A
:100B400019B1016821F008010160016821F001017B
:100B5000016000BF20680068C00714D000F034F9BD
:100B6000401B0628F6D320206065002084F834005E
:100B7000032084F8350070BD80206065002084F873
:100B80003400012070BDE06D3F2101FA00F0B0603B
:100B90000020012184F8340084F8351070BD000075
:100BA00090F83510022909D1052180F83510006828
:100BB000016821F00101016000207047802141653A
:100BC0000120704780B54EF2180140F21C12CEF29F
:100BD0000001C2F2000251F804CC126880B2504306
:100BE0004FF47A7200FB02FE086800230A68824212
:100BF000FCD003449B1A824228BF634473451046CD
:100C000028BF80BDF2E700002DE9F04F82B000F16F
:100C10003E4202F1FF72870541F6004647EA9227FD
:100C2000C4F202060822B04208BF0722072F38BFCD
:100C30003A464FF0010E002400274FF000090092C1
:100C400009E000BF09F101090237B9F1100F04F101
:100C5000040400F0A2800A680EFA09FC12EA0C08EB
:100C6000F0D0D1F804B00BF0030AAAF10102012A76
:100C700014D882680323CD6803FA07FE22EA0E0225
:100C8000BD402A4382604268CBF3001522EA0C0281
:100C900005FA09F54FF0010E2A434260BAF1030F3D
:100CA0001CD0C26803238E6803FA07F5AA43BE402E
:100CB0003243BAF1020FC26010D16FF0030202EAB0
:100CC00059020244D2F820C004F01C050F230E691B
:100CD000AB402CEA0303AE403343136202680323A4
:100CE0004E68BB409A4306F00303BB401A43F3002F
:100CF0000260A7D5002243F644030192C4F2020326
:100D00001A6843F6004C42F480421A601A68C4F232
:100D1000010C02F480420192019A29F003024FF67D
:100D2000084A6244CFF6FF7A52F80A3004F00C0603
:100D30000F25B540AB43009D05FA06F6334342F854
:100D40000A30DCF800204B6842EA0806DD0358BF91
:100D500022EA0806CCF80060DCF804209D0342EA91
:100D6000080658BF22EA0806CCF80460DCF8082020
:100D7000DD0242EA080643F60C4558BF22EA08069F
:100D8000CCF80860C4F201052A689B0242EA080612
:100D900058BF22EA08062E6054E702B0BDE8F08F83
:100DA0000069084018BF012070470000002A08BFF2
:100DB000090481617047000042F20000CEF2040095
:100DC0000068000C7047000040F2D420C2F200001E
:100DD0000068704740F2080040F2D421C2F20000DF
:100DE000C2F2000100780A681044086070470000F1
:100DF00080B543F60040C4F20200016841F400717E
:100E00000160016841F480610160052000F06EF826
:100E10000F2000F005F800F02BF8002080BD000046
:100E2000B0B540F20802C2F2000240F204011278AA
:100E3000C2F200014FF47A730968B3FBF2F2044680
:100E4000B1FBF2F1084600F019FB0F2C4FF0010541
:100E50000CD858B94FF0FF3021460022002500F091
:100E600019F840F20C00C2F2000004602846B0BD40
:100E700070470000002848BF704700F01F010122A2
:100E800002FA01F14EF200124009CEF2000242F8DD
:100E90002010704710B54EF60C5CCEF2000CDCF85A
:100EA0000030C3F3022E8EF00704042C28BF042464
:100EB000BEF103034FF0FF3E0EFA04F438BF0023E7
:100EC000A14399400EFA03F39A43114300F16042A3
:100ED00000F00F03090102F56442043B634400285B
:100EE00048BF03F10C02117010BD00004EF60C510A
:100EF000CEF200010A684FF6FF031A4060F30A229F
:100F000042F0806040F0FD7008607047002804BF28
:100F1000012070472DE9F04143F60808C4F20208A9
:100F20000446D8F8F8030D4600F00700884207D2BF
:100F300088F8F853D8F8F80300F00700A84276D1F3
:100F40002068810717D5410705D5D8F8001041F46E
:100F5000E051C8F80010010705D5D8F8001041F499
:100F60006041C8F80010D8F80010A26821F0F00124
:100F70001143C8F80010C0073FD1D8F8F80300F0BB
:100F80000700A84207D988F8F853D8F8F80300F00A
:100F90000700A8424BD12068410707D5D8F80010B8
:100FA000E26821F4E0511143C8F80010000708D5A9
:100FB000D8F80000216920F4604040EAC100C8F878
:100FC000000000F07BF8D8F8001043F28052C1F323
:100FD0000311C0F60002515C40F2040220FA01F154
:100FE00040F20C00C2F200000068C2F20002116080
:100FF000FFF716FF0020BDE8F0816068811E02291E
:1010000007D258F8081C89015CBF0120BDE8F081B7
:1010100010E0012807D158F8081C89035CBF0120A3
:10102000BDE8F08106E058F8081C890702D40120C9
:10103000BDE8F081D8F8001021F003010843C8F89A
:101040000000FFF7C1FE064641F28837D8F80000DD
:10105000616800F00C00B0EB810F8ED0FFF7B4FE9A
:10106000801BB842F2D90320BDE8F08140F20400B1
:1010700043F60801C2F20000C4F2020100680968E8
:1010800043F29052C1F38221C0F60002515CC84085
:101090007047000040F2040043F60801C2F200006D
:1010A000C4F202010068096843F29052C1F3423170
:1010B000C0F60002515CC8407047000010B543F60E
:1010C0000404C4F20204606800F00C0142F2004023
:1010D0000829C0F2F40007D0042918BF10BD41F25E
:1010E0000020C0F27A0010BD216801F03F022168A3
:1010F00023684902C3F3881105D4A1FB0001002332
:10110000FFF7D3F806E041F20020C0F27A0048432E
:10111000B0FBF2F021680222C1F3014102EB410170
:10112000B0FBF1F010BD0000002804BF01207047A3
:101130002DE9F04182B00446007843F60006C0076E
:10114000C4F2020647D0B06800F00C00042808D1B1
:10115000306880033FD56068E8BB012002B0BDE87D
:10116000F081B06800F00C00082802D170684002DD
:10117000EED46568B5F5A02F0AD0B5F5803F0BD049
:10118000306820F480303060306820F4802006E041
:10119000306840F480203060306840F48030306047
:1011A000FFF712FE002D054612D000BF3068800305
:1011B00011D4FFF709FE401B6428F7D926E100BFD0
:1011C000FFF702FE401B64284FF0030000F2E280AC
:1011D00030688003F4D4207880071BD5B06810F005
:1011E0000C0F09D0B06800F00C00082840F0878090
:1011F0007068400200F183803068800703D5E068A2
:10120000012840F09E803068216920F0F80040EA13
:10121000C10030602078000735D42078400748D4DA
:10122000A56965B3B06800F00C00082840F09E8006
:10123000012D00F086807068E16900F480028A4226
:1012400040F07F80216A00F03F028A4279D147F660
:10125000C071626A0140B1EB821F72D1A16A4FF680
:10126000FF73C903994300F44032A1F580318A42EB
:1012700067D1E16A00F07060B0EB016F61D10020CE
:1012800002B0BDE8F0816069002840F20000C4F2BD
:1012900047205AD00121C0F8801EFFF795FD054672
:1012A000706F8007B9D4FFF78FFD401B0228F7D974
:1012B000ACE0306C5FEAC0080AD400200190306CCA
:1012C00040F080503064306C00F080500190019804
:1012D00047F20007C4F200073868C00524D4386814
:1012E00040F480703860FFF76FFD05463868C00530
:1012F0001AD4FFF769FD401B0228F7D986E0E068A1
:10130000002857D00020C4F2472001210160FFF7D8
:101310005BFD0546306880073FF575AFFFF754FD6C
:10132000401B0228F6D971E0A568052D56D0012D85
:1013300058D0306F20F001003067306F20F004008B
:1013400053E0012002B0BDE8F0810021C0F8801E0A
:10135000FFF73AFD054600BF706F80077FF55DAF70
:10136000FFF732FD401B0228F6D94FE00027C4F2F8
:10137000472700203866FFF727FD022D05460DD1CF
:101380003068800159D5FFF71FFD401B02284FF040
:101390000300F5D902B0BDE8F08100BF30688001DC
:1013A0007FF56DAFFFF710FD401B02284FF00300E3
:1013B000F4D9EFE70020C4F2472000210160FFF7D5
:1013C00003FD0546306880077FF524AFFFF7FCFC7E
:1013D000401B02284FF00300F4D9DBE7306F40F0E8
:1013E00004003067306F40F001003067FFF7ECFC1D
:1013F000002D054641F2883713D000BF306F8007BB
:1014000012D4FFF7E1FC401BB842F7D9032002B029
:10141000BDE8F081FFF7D8FC401BB8424FF0030055
:10142000B8D8306F8007F5D4B8F1000F3FF5F8AEAB
:10143000306C20F080503064F2E604F11C052FCDB2
:10144000084340EA8210D9034FF6FF729143A1F599
:10145000803140EA05600843706001203866FFF77C
:10146000B3FC0446306880013FF509AFFFF7ACFCE0
:10147000001B02284FF00300F4D98BE7411E002027
:10148000B0EB116F1CBF012070474EF21002CEF27C
:10149000000251604EF62351CEF20001F0230B7092
:1014A000072190601160704770470000704700008E
:1014B000002804BF0120704710B5044690F83D0095
:1014C00028B9002084F83C00204600F01FF80220D4
:1014D00084F83D002068211D00F020FE012084F8E2
:1014E000460084F83E0084F83F0084F8400084F809
:1014F000410084F8420084F8430084F8440084F8F2
:10150000450084F83D00002010BD0000006841F255
:101510000001C4F20001884218BF704780B582B054
:101520000020019043F64000C4F20200016803224B
:1015300041F0100101600068012100F010000190ED
:1015400001983620FFF7A6FC362002B0BDE88040A7
:10155000FFF790BC90F83D1001291CBF0120704797
:10156000022180F83D10006841F2FF72C168C4F2A8
:101570000002904241F00101C1600DDC40F2FF71B8
:10158000C4F20001884215DCB0F1804F29D040F24E
:101590000041C4F2000122E040F2FF31C4F2010137
:1015A000884212DC41F60001C4F20001884218D0E2
:1015B000002112E040F60001C4F20001884210D080
:1015C00040F60041C4F2000109E044F20001C4F217
:1015D0000101884205D040F20041C4F20101884275
:1015E00006D1816801F00701062904BF0020704779
:1015F000016841F001010160002070477047000060
:1016000010B5044600680169890744BFC1685FEAF4
:1016100081713FD420680169490744BFC1685FEA0E
:10162000417143D420680169090744BFC1685FEA7A
:10163000017148D420680169C90644BFC1685FEAE6
:10164000C1614CD420680169C9071CBFC1685FEA49
:10165000C17151D120680169090644BFC1685FEAC0
:10166000016150D420680169490644BFC1685FEA3E
:1016700041614FD421680869800646BFC8685FEAA7
:10168000806010BD6FF0200220460A61BDE8104066
:10169000FFF70CBF6FF00201016101212177806922
:1016A00080073ED02046FFF7A9FF40E06FF004011D
:1016B000016102212177806910F4407F3AD02046F1
:1016C000FFF79CFF3CE06FF00801016104212177E6
:1016D000C069800737D02046FFF790FF39E06FF0F0
:1016E0001001016108212177C06910F4407F33D0D7
:1016F0002046FFF783FF35E06FF0010101612046CE
:1017000000F066FAA6E76FF0800101612046FFF75E
:10171000CBFEA7E76FF040010161204600F0BCFA64
:10172000A8E7204600F022F8204600F0BDF900208E
:1017300020776FE7204600F019F8204600F0B4F952
:10174000002020776EE7204600F010F8204600F0D9
:10175000ABF9002020776DE7204600F007F820461F
:1017600000F0A2F9002020776CE70000704700002D
:1017700090F83C30012B04BF022070474FEAB202C0
:101780000123032A80F83C3000F2F7802DE9F04372
:10179000DFE802F0023D7CBC036840F200461A6AB2
:1017A00043F4806522F001021A621C6A1A46D3F8DB
:1017B00004C052F818EF8F6824F00204C4F2010646
:1017C000B54244EA070405D1CF6824F00C0427F0A1
:1017D00004073C430F68B54206D1D1E905582CF403
:1017E00040762E4346EA080C2EF073063743C3F8C2
:1017F00004C09F614F6809695F631C629F6947F07D
:1018000008079F619F6927F004079F61B0E00368A4
:1018100040F200481A6A43F4806522F010021A620E
:101820001C6A1A46D3F804C052F818EF8F6824F0E7
:101830002004C4F20108454544EA071407D1CF68E3
:101840006FF0400624F0C00406EA07163443D1F8CE
:101850000090454506D1D1E905562CF440672E434A
:1018600047EA860C2EF4E64747EA0927C3F804C086
:101870009F614F6809699F631C629F6947F4006715
:101880009F619F6927F480679F6170E0036840F261
:1018900000481A6A43F4806522F480721A621C6A56
:1018A0001A46D3F804C052F81CEF8F6824F4007471
:1018B000C4F20108454544EA072408D1CF6840F244
:1018C000FF463F0224F4406427EA06063443D1F879
:1018D0000090454506D1D1E905562CF440572E43DA
:1018E00047EA061C2EF0730747EA0907C3F804C04D
:1018F000DF614F680969DF631C62DF6947F0080731
:10190000DF61DF6927F00407DF6131E0036840F23F
:1019100000451A6A43F4806722F480521A621A461C
:10192000D3F820C05C6852F81CEFD1F800808E68B4
:10193000C4F20105AF4204D14D6924F4804444EA65
:1019400085142CF4005747EA06372EF4E64646EA9B
:1019500008265C60DE614E6809691E641F62DF69EB
:1019600047F40067DF61DF6927F48067DF61090200
:10197000136819431160BDE8F043002180F83C1062
:1019800008467047002804BF0120704710B5044680
:1019900090F83D0028B9002084F83C00204600F073
:1019A0001FF8022084F83D002068211D00F0B6FBDE
:1019B000012084F8460084F83E0084F83F0084F853
:1019C000400084F8410084F8420084F8430084F821
:1019D000440084F8450084F83D00002010BD00005C
:1019E00080B586B0006844F60001C4F20101884267
:1019F0002DD040F20041C4F20101884252D10020B2
:101A000043F630010190C4F202010A6842F0040278
:101A10000A600A6802F004020192019A0190486982
:101A200040F0020048614869012100F00200019085
:101A300001984FF48070019002200290CDE90310CC
:101A40000320059040F60000C4F2020027E00020C9
:101A500043F630010190C4F202010A6842F020020C
:101A60000A600A6802F020020192019A0190486916
:101A700040F4802048614869012100F480200190F1
:101A800001988020019002200290CDE903100320EC
:101A9000059040F60000C4F2020000F5406001A984
:101AA000FFF7B2F806B080BD7047000041B10829C9
:101AB00009D0042914BF00F1410200F13F0204E003
:101AC00000F13E0201E000F140021278012A1CBF41
:101AD00001207047022241B1082909D0042914BF0E
:101AE00080F8412080F83F2004E080F83E2001E0AB
:101AF00080F84020006801F01F010122036A02FA09
:101B000001F123EA01020262026A0A4341F2FF7113
:101B1000C4F20001884202620BDC40F2FF71C4F2A1
:101B20000001884213DCB0F1804F45D040F2004103
:101B300015E040F2FF32C4F20102904214DC41F69B
:101B40000003C4F20003984236D0002314E040F6AC
:101B50000001C4F2000188422ED040F60041C4F2D8
:101B60000001884228D02CE044F20003C4F20103B3
:101B7000984221D040F20043C4F20103984220D1A0
:101B8000436C884243F400434364C6DD904207DC63
:101B900041F60001C4F2000188420DD0002107E0A7
:101BA00044F20001C4F20101884205D040F2004134
:101BB000C4F20101884204D1816801F007010629BD
:101BC00003D0016841F0010101600020704700006E
:101BD000006841F20001C4F20001884218BF70475A
:101BE0002DE9F04381B040F27004C2F200045020AD
:101BF0003D212246062300F039FCB4F90000B4F977
:101C00000290B4F9048001F080FB9FED1F0B54ECAF
:101C1000105B2A46234601F0A3FB9FED1D0B57ECFA
:101C2000106B32463B4601F09BFB01F03FFB40F25C
:101C3000C421C2F200010880484601F066FB2A4632
:101C4000234601F08DFB32463B4601F089FB01F053
:101C50002DFB40F2C221C2F200010880404601F093
:101C600054FB2A46234601F07BFB32463B4601F0FB
:101C700077FB01F01BFB40F2D821C2F20001088083
:101C800001B0BDE8F0437047000000000000003FD5
:101C900000000000008066407047000070470000B0
:101CA00070470000B0B582B0026805461068D3687E
:101CB000546900F02F01202903F0200106D129B139
:101CC000284602B0BDE8B04000F0C0BA5FEA007C30
:101CD0001EBF04F0010E03F4907414EB0E0440D107
:101CE000296BC40618D5012916D113F0100113D0A1
:101CF000002001901068019050680190019850698F
:101D0000400636D4A88DE98DEB8D002B18BF884294
:101D100040F0D38002B0B0BD010655D513F080016C
:101D200052D095F83D002128F4D1A868B0F5805F25
:101D300003D12869002800F0DF80286A411C29624D
:101D400000785060E88C01380104E884E2D1D06862
:101D500020F08000D060D06840F04000D06002B039
:101D6000B0BDC20718BF13F480723FD1420743D4FD
:101D700049E0A86B016849688BB2002BCAD0AC8DD2
:101D8000A342C7D2E985C169B1F5807F16D0D16879
:101D900021F48071D160516921F0010151615169D3
:101DA00021F040015161202185F83E100021296376
:101DB000D16821F01001D160FEF7ACFEA88DE98D4D
:101DC000401A81B228468CE04006A3D513F04000AB
:101DD000A0D0D068202120F04000D060284685F8AF
:101DE0003D1002B0BDE8B04000F07AB92A6C42F074
:101DF00001022A64420706D5BEF1000F03D02A6C07
:101E000042F002022A64820706D5BEF1000F03D019
:101E10002A6C42F004022A64BCF1000F06D55EEA87
:101E2000010203D02A6C42F008022A642A6C002ABC
:101E30003FF470AF800603D511B1284600F006FAD2
:101E4000286841692A6C01F0400102F008028918F3
:101E50002CD0C16821F49071C160416921F0010169
:101E60004161296B012903D1C16821F01001C160D2
:101E7000202185F83E10002129634169490635D5A6
:101E8000416921F040014161A86B78B342F24121E0
:101E9000C0F600010165FEF783FE00283FF43AAF6B
:101EA000A86B016D02B0BDE8B04008472846FFF7B7
:101EB000F7FE0020286402B0B0BDD368401A23F4B6
:101EC0009073D360536981B223F0010353612023DF
:101ED00085F83E3000232B63D368284623F0100397
:101EE000D36002B0BDE8B040FFF7D8BE284602B0CC
:101EF000BDE8B040FFF7D4BE286A30F8021B6FF38C
:101F00005F21516028621DE7002804BF012070474F
:101F100010B5044690F83D0028B9002084F83C0034
:101F2000204600F021F8242084F83D002068C16894
:101F300021F40051C160204600F0D8F92068016901
:101F400021F490410161416921F02A014161C16898
:101F500041F40051C16000202021206484F83D102C
:101F600084F83E1010BD000070B586B00024C4F2A5
:101F700002040068A4F57041884201D006B070BD2B
:101F8000002043F630010190C4F202014A6901AD1C
:101F900042F010024A614A69072602F010020192DB
:101FA000019A01900A6842F001020A600A6802F090
:101FB00001020192019A0190086840F00100086056
:101FC0000868012100F00100019001984FF40070B1
:101FD000019002200290CDE9031020462946059683
:101FE000FEF712FE4FF480600190204629460596C8
:101FF000FEF70AFE2520FEF73DFF252003210322E0
:10200000FEF748FF06B070BD034690F83E0020285A
:102010000AD100294FF0010018BF002A00D17047F3
:1020200093F83C00012801D102207047002018637A
:10203000996222219A85DA85186483F83E1019681E
:1020400083F83C00CA6842F48072CA604A6942F070
:1020500001024A61CA6842F02002CA60704700006B
:10206000006841F20001C4F20101884218BF7047C4
:1020700040F2C02CC2F2000CBCF8002011B20029C2
:1020800023D440F22013C2F200031B78500404D47E
:102090000D2B0CD141F4804215E048F200000022E3
:1020A000CFF6FF700A2B08BF41EA00020BE040F2B6
:1020B000F8106FF39F32C2F2000083544A1C90B2B2
:1020C000C72888BF0022ACF8002040F2B41040F2CC
:1020D0002011C2F20000C2F200010122FFF794BFFA
:1020E00070470000FEE70000FEE7000070470000B8
:1020F0007047000070470000FEF76CBE4EF6885037
:10210000CEF20000016841F47001016070470000E8
:1021100040F22410C2F20000FFF772BA10B540F688
:10212000FF3E0368C4F2000E40F2004C7045C4F25A
:10213000010C0FDCB0F1804F19D040F20042C4F224
:102140000002904213D040F60002C4F20002904216
:102150000DD010E040F60042C4F20002904206D0DA
:10216000604504D00022C4F20102904203D14A68C3
:1021700023F07003134341F6FF72C4F20002904251
:102180000DDC70451FDCB0F1804F41D040F20042C1
:10219000C4F2000290423BD040F6000221E043F638
:1021A000FF72C4F20102904220DC42F20002C4F24B
:1021B000000290422CD00022C4F20102904227D0AB
:1021C000604525D028E040F60042C4F2000290426B
:1021D0001ED041F60002C4F20002904218D041F62F
:1021E0000042C4F20002904212D015E044F2000214
:1021F000C4F2010290420BD044F60002C4F2010284
:10220000904205D044F20042C4F20102904203D150
:10221000CA6823F44073134323F080024B69D1F85A
:1022200000E08C681A430260C46240F48062C0F827
:1022300028E0624504BF096901630121416110BDC5
:10224000806B0021C185C184FFF72ABD10B504460B
:1022500090F83E00222847D1A168B1F5805F01D1F6
:10226000206990B1A06AB1F5805F07D009B92169F2
:1022700021B12168496801F07F0101E021684968C6
:102280000170A06A0130A06207E02068A16A40687E
:102290006FF35F2021F8020BA162E08D0138010489
:1022A000E08518BF10BD2068C16821F02001C16021
:1022B000C16821F48071C160416921F0010141616F
:1022C000202184F83E10216B012908D1C16821F03A
:1022D0001001C160A18D2046FFF7E0FC02E020461E
:1022E000FFF7BEFE0020206310BD000010B50446BD
:1022F0000068D4E902C22369016921F44051114305
:102300000161626943EA0C01E3691143C268194340
:1023100049F20C639A431143C1604169A26921F4F7
:10232000407141F20043114340F48062C4F2010362
:102330009A42416102D1FEF7ADFE01E0FEF796FE42
:10234000E16963681922B1F5004FA0FB020120D1B9
:102350005A00DB0FFDF7A9FF48F21F51C5F2EB1140
:10236000A0FB01235A094FF69C73C0F6FF7303F1DB
:10237000805302FB0300322303EBC000A0FB0101EA
:102380004FF4F87000EA111000EB0210C1F3421193
:102390001CE09A009B0FFDF788FF48F21F51C5F221
:1023A000EB11A0FB01235A094FF69C73C0F6FF7393
:1023B00002FB0300322303EB0010A0FB0101F0201D
:1023C00000EA511000EB0210C1F3431108442168E8
:1023D000886010BD40F2B410C2F20000FFF762BC8A
:1023E000FEE700002DE9F04186B04FF0000843F60B
:1023F0003006CDF80480C4F20206306840F600448E
:1024000040F0080030603068C4F2020400F00800B8
:1024100001900198042001900127032501A920467D
:102420000297CDE90375FEF7EFFBCDF80480306825
:1024300001A940F008003060306800F00800019009
:1024400001981020CDE901072046CDE90375FEF77C
:10245000DBFB204604210122FEF7A8FC20461021C8
:102460000122FEF7A3FC06B0BDE8F0812DE9F041A2
:102470001C4690460E46074600F0B8FB7D00E8B2C9
:1024800000F086FB00F0F8FB304600F081FB00F026
:10249000F3FB00F0ABFB681CC0B200F079FB00F06E
:1024A000EBFB74B1661E0027002500BFF01B18BFB0
:1024B000012000F009FB013508F80700AFB2A74280
:1024C000F4D300F0B9FB0120BDE8F08170470000B3
:1024D0002DE9F04F85B08B4631B340F2D406054666
:1024E00000274FF001094FF0070AC2F200060DF174
:1024F0000408002401A880E8200630464146FEF783
:10250000B1F83046FEF770FA30460A21FEF70CFAB1
:102510003046FEF72BF914FA80F4052000F0F2F8AB
:1025200001375F45E6D300E00024B4FBFBF005B0C3
:10253000BDE8F08F40F2D40042F20001C2F2000088
:10254000C4F201014FF48032002380E80E00012123
:10255000C1610121C0F60071C0E90333037680F840
:102560002030C0E90931C36280F83030FEF702B98B
:10257000B0B540F20044C4F2020404F500652846F8
:1025800008210022FEF712FC284620210122FEF736
:102590000DFC204608210022FEF708FC20464FF4DF
:1025A00080610122BDE8B040FEF700BC10B540F2EA
:1025B0002414C2F2000441F200020023C4F200021B
:1025C000C4E902302046C4E90021FEF771FF20462D
:1025D000BDE81040FEF7BEBF2DE9F0438BB04FF0D1
:1025E000000843F63007CDF81880C4F202073868B7
:1025F00040F2004440F0080038603868C4F2020439
:1026000000F0080006900698282004F50065069062
:1026100001264FF0020906A92846CDE90766CDF844
:102620002490FEF7F1FACDF80480386801A940F053
:1026300002003860386800F00200019001984FF401
:102640008160CDE901062046CDE90369FEF7DCFA99
:10265000284608210122FEF7A9FB28462021002256
:10266000FEF7A4FB204608210122FEF79FFB20462F
:102670004FF480610022FEF799FB0BB0BDE8F083B8
:102680002DE9F0418AB0002543F630060595C4F2E5
:102690000206306840F6004440F0100030603068B8
:1026A000C4F2020400F01000059005984FF4C050E9
:1026B000CDE905054FF00108022704F5806005A962
:1026C000CDF81C800897FEF79FFA009530686946A0
:1026D00040F008003060306800F00800009000987A
:1026E0004FF420508DE8210120460397FEF78CFA25
:1026F0000AB0BDE8F081000040F21C11C2F20001F6
:102700000860704780B54EF2180140F21C12CEF2FC
:102710000001C2F2000251F804CC126800235043B9
:102720004FF47A7200FB02FE086800BF0A6882421A
:10273000FCD003449B1A824228BF63447345104671
:1027400028BF80BDF2E7000080B54EF2180140F2CC
:102750001C12CEF20001C2F2000251F804CC126841
:10276000002302FB00FE08680A688242FCD0034492
:102770009B1A824228BF63447345104628BF80BD20
:10278000F2E7000010B540F60044C4F2020420460F
:102790004FF40051FEF704FB012808D120464FF406
:1027A0000061FEF7FDFA012804BF002010BD20469D
:1027B0004FF40051FEF7F4FA40B920464FF400619F
:1027C000FEF7EEFA012804BF012010BD20464FF4A9
:1027D0000051FEF7E5FA28B920464FF40061FEF7F4
:1027E000DFFA10B14FF0FF3010BD022010BD000025
:1027F00041F20001C4F201010A685206FCD5C2B2DE
:102800004A607047B0B540F20044C4F2020404F5D7
:102810000065284608210122FEF7C8FA2846202133
:102820000022FEF7C3FA204608210122FEF7BEFA75
:1028300020464FF480610022BDE8B040FEF7B6BAF2
:102840002DE9F0438FB04FF0000843F63006CDF885
:102850002880C4F20206306841F2000940F04000CE
:1028600030603068C4F2020900F040000A900A9813
:102870004FF4806009F500650A90012702240AA937
:102880002846CDE90B770D94FEF7BEF9CDF81480FC
:10289000306805A940F010003060306800F010008A
:1028A000059005984120CDE905074846CDE9077414
:1028B000FEF7AAF9CDF800803068694640F00400C0
:1028C00030603068A9F5006600F0040000900098C0
:1028D0003046CDE90047CDE90274FEF795F9284668
:1028E0004FF480610022FEF761FA48460121002280
:1028F000FEF75CFA304602210022FEF757FA4846FE
:1029000040210022FEF752FA0FB0BDE8F08300002C
:1029100070B588B0044640F26C1540F20040C2F237
:102920000005C4F20100002685E84300284607960A
:10293000CDE90566CDE90366CDE90166EC60FFF7F8
:1029400021F8602001906008CDE9020601A928461F
:102950000822FEF70DFF28460821FFF7A7F808B068
:1029600070BD0000F0B585B0002743F63000009739
:10297000C4F20200016841F2000441F0020101606A
:102980000168C4F2020401F002010091009900976D
:102990000168A4F5406541F01001016000686E46D1
:1029A00000F0100000900098102000900120CDE968
:1029B00001000320039028463146FEF725F9042044
:1029C00000901120019020463146FEF71DF9204667
:1029D00004210022FEF7EAF90120FFF7B5FE2846A0
:1029E00010210122FEF7E2F90120FFF7ADFE20469B
:1029F00004210122FEF7DAF90120FFF7A5FEC82025
:102A0000FFF780FEAE2000F07DF9D52000F07AF9C6
:102A1000802000F077F9A82000F074F93F2000F042
:102A200071F9D32000F06EF9002000F06BF940201E
:102A300000F068F9A12000F065F9C82000F062F903
:102A4000DA2000F05FF9122000F05CF9812000F03C
:102A500059F9CF2000F056F9D92000F053F9F120B0
:102A600000F050F9DB2000F04DF9302000F04AF979
:102A7000A42000F047F9A62000F044F98D2000F0D2
:102A800041F9142000F03EF9AF2000F03BF900BFFF
:102A9000A7F15000C4B2204600F034F9204600F0FF
:102AA00031F9204600F02EF9002400BF002000F08C
:102AB00077F9601C44B2B4F1FF3FF7DCF8B201379C
:102AC0000728E5D305B0F0BD2DE9F04140F2004400
:102AD000C4F202048046002704F54065002600BFCA
:102AE000204610210122FEF761F90120FFF72CFE9C
:102AF00028460421FEF754F9002818BF012040EAB7
:102B00004707204610210022FEF750F90120FFF769
:102B10001BFE072E06F10106E2D3B8F1000F1BD011
:102B2000284604210022FEF741F90120FFF70CFEA0
:102B3000204610210122FEF739F90120FFF704FE9B
:102B4000204610210022FEF731F90120FFF7FCFD9D
:102B500028460421012212E0284604210122FEF722
:102B600025F90120FFF7F0FD204610210122FEF794
:102B70001DF90120FFF7E8FD204610210022FEF795
:102B800015F90120FFF7E0FDF8B2BDE8F081000083
:102B9000F0B581B040F20046C4F2020604460027B8
:102BA00006F54065E0B2C20928460421FEF7FEF8AA
:102BB0000120FFF7C9FD304610210122FEF7F6F88B
:102BC0000120FFF7C1FD304610210022FEF7EEF88C
:102BD0006400072F07F10107E4D3284604210122EE
:102BE00001B0BDE8F040FEF7E1B80000B0B540F23A
:102BF0000044C4F2020404F5406528460421012281
:102C0000FEF7D4F8204610210122FEF7CFF801206C
:102C1000FFF79AFD284604210022FEF7C7F801209D
:102C2000FFF792FD204610210022FEF7BFF8012099
:102C3000BDE8B040FFF788BD10B541F20004C4F212
:102C40000204204604210022FEF7B0F80120FFF71D
:102C50007BFDA4F5406010210122FEF7A7F80120BA
:102C6000FFF772FD204604210122FEF79FF80120A4
:102C7000BDE81040FFF768BD70B541F20005C4F231
:102C80000205284604210122FEF790F80120FFF7F3
:102C90005BFDA5F54064204610210122FEF786F871
:102CA0000120FFF751FD002628460421FEF778F8A1
:102CB000E8B1FA2E06F10106F6D3284604210022D7
:102CC000FEF774F801200126FFF73EFD2046102193
:102CD0000122FEF76BF80120FFF736FD284604219C
:102CE0000122FEF763F80120FFF72EFD00E0002629
:102CF000204610210022FEF759F80120FFF724FD9D
:102D0000304670BD70B541F20004C4F202040646BC
:102D1000204604210122FEF749F8A4F54065284623
:102D200010210122FEF742F80120FFF70DFD204699
:102D300004210022FEF73AF80120FFF705FD28469E
:102D400010210022FEF732F80120FFF7FDFC782069
:102D5000FFF71EFFFFF790FF0020FFF719FFFFF7B7
:102D60008BFF3046FFF714FFFFF786FF2046042154
:102D70000022FEF71BF80120FFF7E6FC2846102191
:102D80000122FEF713F80120FFF7DEFC20460421A4
:102D90000122FEF70BF80120BDE87040FFF7D4BC1C
:102DA00070B541F20004C4F2020406462046042134
:102DB0000122FDF7FBFFA4F5406528461021012202
:102DC000FDF7F4FF0120FFF7BFFC2046042100229D
:102DD000FDF7ECFF0120FFF7B7FC28461021002289
:102DE000FDF7E4FF0120FFF7AFFC7820FFF7D0FEEE
:102DF000FFF742FF4020FFF7CBFEFFF73DFF3046D5
:102E0000FFF7C6FEFFF738FF204604210022FDF73A
:102E1000CDFF0120FFF798FC284610210122FDF785
:102E2000C5FF0120FFF790FC204604210122FDF799
:102E3000BDFF0120BDE87040FFF786BC2DE9F041E1
:102E40008AB0002543F630060595C4F202063068C4
:102E500040F2004440F0200030603068C4F20204C8
:102E600000F02000059005984FF4A070CDE905050D
:102E70004FF00108022704F5805005A9CDF81C8009
:102E80000897FDF7C1FE00953068694640F00200E2
:102E90003060306800F002000090009805208DE856
:102EA000210120460397FDF7AFFE0AB0BDE8F0818F
:102EB000B0B540F20044C4F2020404F500652846AF
:102EC00008210122FDF772FF284620210122FDF78B
:102ED0006DFF204608210122FDF768FF20464FF4D0
:102EE00080610122BDE8B040FDF760BF0000000036
:102EF00041F20004C4F20204FDF77AFF4FF4A87017
:102F000008210222072300F0FBF8A820FFF7F4FBBA
:102F10004FF4E13000F078F94FF4FA70FDF752FE0B
:102F2000FFF7AEFBFFF758FBFFF78AFCFFF71AFD30
:102F3000FFF700FBFFF756FAFFF780FFC72040F2CC
:102F40008F61FFF7E5FC40F26C10C2F200000068F0
:102F50003221C16340F2E73040F24731FFF726FBF0
:102F600020464FF48051FDF71BFF012806D1204673
:102F70004FF40061FDF714FF0128F1D0FFF742FC88
:102F800000F024F99FED4A0B40F2D00640F2D02425
:102F900040F2C82740F2CC2840F2C425C2F2000615
:102FA0005BEC10ABC2F20004C2F20007C2F20008F0
:102FB000C2F200050FF2001908E000BFFFF722FC83
:102FC0000120FFF79FFB0120FFF79CFB05200A2152
:102FD000FFF77EFA81B23080084600F0ADF9524624
:102FE0005B4600F0BDF900F02FF9206003200A21B4
:102FF000FFF76EFA81B23080084600F09DF9524624
:103000005B4600F0ADF900F01FF9386004200A219A
:10301000FFF75EFA81B23080084600F08DF9524623
:103020005B4600F09DF900F00FF9B5F90010C8F803
:1030300000004846FDF7B2F96420FFF763FBB5F9DD
:1030400000000B2811DB40F26C10C2F20000006897
:10305000FA21C1634FF47A70FFF754FB40F26C1011
:10306000C2F2000000683221C16341F20000C4F2E4
:1030700002004FF48051FDF793FE01460FA0FDF7CB
:103080008DF9FFF77FFB002898D0FFF77BFB012825
:1030900002D100F017F893E7FFF774FB022803D181
:1030A000FFF766FA64208CE7FFF702FF88E700BFAE
:1030B0006666666666664A3F25640A0025640D0AF0
:1030C00000000000B0B540F20044C4F2020404F570
:1030D0000065284608210022FDF768FE28462021C9
:1030E0000022FDF763FE204608210022FDF75EFE68
:1030F00020464FF480610022BDE8B040FDF756BE87
:103100002DE9F04F93B00E46074643F6400807A856
:10311000302199469346C4F20208FDF7BBF9002519
:103120000695CDE90455CDE902550195D8F8000082
:10313000012440F08050C8F80000D8F800004FF09B
:10314000020A00F080500190019847F200000195BA
:10315000C4F20000016841F48041016000680EA9DA
:1031600000F48040019001984FF4803008904FF4B3
:10317000800081E8C10807A80794CDF834A0CDF8F5
:103180004890FDF7D1FFE8B90F20CDE9020A4FF4CE
:10319000A05005904FF48050069002A80521049598
:1031A000FDF7B4FE08B101240CE0FDF705FE41F285
:1031B0000101884205D1D8F8C00340F48070C8F8F6
:1031C000C0030024204613B0BDE8F08F10B541F2D3
:1031D0000004C4F2020404F500604FF4806101228F
:1031E000FDF7E4FD204601210122FDF7DFFDA4F5F6
:1031F000006002210122FDF7D9FD20464021012275
:10320000BDE81040FDF7D2BD10B540F2B41441F254
:103210000001C2F20004C4F2010100220C23C4E93F
:1032200000102046C4E90222C4E90423A261FEF78B
:103230006BFE40F22011C2F2000120460122BDE8DF
:103240001040FEF7E1BE000021F0004201F0004313
:10325000A2F16052B2F5801F28BFD2F17F6C0BD96A
:103260005FEA001C43EAC20242EB507018BF70478D
:1032700028BF20F001007047B2F5801FBCBF184680
:1032800070474FEA410C1CF5001F02D2084600F0BF
:1032900072B970B500F00EF900000089FFF7F6BFB3
:1032A0004FF00040A0F58000704700004FEA410356
:1032B0004FEA5353A3F58063D3F11E03C8BFD3F184
:1032C000210C0CDD4FF0004242EAC12242EA50528A
:1032D00032FA03FC8CEAE17CACEBE1707047102B16
:1032E000C4BF0020704703F5787CBCF1FF3F04D0D9
:1032F0006FF0004282EA2100704770B500F0DAF802
:103300004992248000207047F2E710F0004248BF45
:103310004042B0FA80F310FA03F10AD0C3F11D0362
:1033200003F5806302EB03524FEA415002EBD121D7
:1033300070474FF000007047B0FA80F310FA03F1C5
:103340000AD0C3F11D0303F580634FEA03524FEA2D
:10335000415002EBD12170474FF000007047000050
:1033600070B5DFF848C11CEA111E1EBF1CEA131518
:103370009EEA0C0F95EA0C0F00F06F8081EA0304BF
:103380004EEAD47EAE4421EA4C1123EA4C1341F4B8
:10339000801143F48013AEF17F7EA1FB024CA0FBB1
:1033A0000365361955EB0C05A1FB034C4CF10003EA
:1033B000A0FB021C16EB0C06654153F10003094209
:1033C00018BF46F0010613F4007F0BD14FEA03311A
:1033D0004FEA053041EA155140EA165034036FF0C8
:1033E00003020AE04FEAC3214FEAC52041EA5551E2
:1033F00040EA5650F4026FF0020202EB2E4201EB5B
:10340000025585EACE710AD05FEA440C18BF24F059
:10341000004450F1000041F1000120EAD47040F274
:10342000FE7C624500D270BDA84214BF4FF08044BC
:103430004FF04044002E08BF0024BEF1806FA8BFAB
:10344000A1F1C041BDE8704080F2828001F1C0412D
:1034500001F000414FF0000070470CEA13159EEA9E
:103460000C0F18BF95EA0C0F06D081EA030E4FF03F
:1034700000000EF0004170BD00F01CF88900013E14
:1034800000F007B800F009B84FEA430C5FEA5C5C53
:1034900008D081EA030100F05BB84FEA410C5FEA13
:1034A0005C5CF6D102494FF0000070470000FF0756
:1034B0000000F87F0EF1020E2EF0030E5EF8046B92
:1034C000364205D4012A43EB030515F5001F12D837
:1034D000012841EB010C1CF5001F0CD80ED14FEA5E
:1034E000D17C0CEB4C0C0CF1020C15F5001F08BF45
:1034F0004CEBD37C04E04FF0080C01E04FEAD37CA6
:103500000CEB4C0526FA05F606F00706B6F1040C9E
:1035100006D20EEB860CBDE870404CF0010C604703
:10352000DFE80CF0090B02024FF00041A1F5002189
:103530004FF0000070BD19461046012851EB010400
:1035400018BFD4F5001484BF002001F0004170BD05
:103550000808A0F500114FEA31017047F1EE100A9A
:103560004FF6FF71C0F2C03120EA010040F0407018
:10357000E1EE100A7047FF2141EAD050C0057047C4
:103580000000000000000000010203040607080913
:103590000000000001020304B8350008000000200C
:1035A00010000000EC010008C835000810000020E1
:1035B000D00600000C020008010000000024F40006
:0835C0000100000010000000F2
:040000050800018965
:00000001FF
